{
  "contractName": "Vesting",
  "abi": [
    {
      "inputs": [],
      "stateMutability": "nonpayable",
      "type": "constructor"
    },
    {
      "anonymous": false,
      "inputs": [
        {
          "indexed": true,
          "internalType": "address",
          "name": "to",
          "type": "address"
        },
        {
          "indexed": false,
          "internalType": "uint256",
          "name": "currentBlock",
          "type": "uint256"
        },
        {
          "indexed": false,
          "internalType": "address",
          "name": "token",
          "type": "address"
        },
        {
          "indexed": false,
          "internalType": "uint256",
          "name": "amountToken",
          "type": "uint256"
        },
        {
          "indexed": false,
          "internalType": "uint256",
          "name": "amountEth",
          "type": "uint256"
        }
      ],
      "name": "ClaimPayment",
      "type": "event"
    },
    {
      "anonymous": false,
      "inputs": [
        {
          "indexed": true,
          "internalType": "address",
          "name": "from",
          "type": "address"
        },
        {
          "indexed": true,
          "internalType": "address",
          "name": "to",
          "type": "address"
        },
        {
          "indexed": false,
          "internalType": "uint256",
          "name": "start",
          "type": "uint256"
        },
        {
          "indexed": false,
          "internalType": "uint256",
          "name": "finish",
          "type": "uint256"
        },
        {
          "indexed": false,
          "internalType": "address",
          "name": "token",
          "type": "address"
        },
        {
          "indexed": false,
          "internalType": "uint256",
          "name": "amountToken",
          "type": "uint256"
        },
        {
          "indexed": false,
          "internalType": "uint256",
          "name": "amountEth",
          "type": "uint256"
        }
      ],
      "name": "CreatePlan",
      "type": "event"
    },
    {
      "anonymous": false,
      "inputs": [
        {
          "indexed": false,
          "internalType": "address",
          "name": "account",
          "type": "address"
        }
      ],
      "name": "Paused",
      "type": "event"
    },
    {
      "anonymous": false,
      "inputs": [
        {
          "indexed": true,
          "internalType": "bytes32",
          "name": "role",
          "type": "bytes32"
        },
        {
          "indexed": true,
          "internalType": "bytes32",
          "name": "previousAdminRole",
          "type": "bytes32"
        },
        {
          "indexed": true,
          "internalType": "bytes32",
          "name": "newAdminRole",
          "type": "bytes32"
        }
      ],
      "name": "RoleAdminChanged",
      "type": "event"
    },
    {
      "anonymous": false,
      "inputs": [
        {
          "indexed": true,
          "internalType": "bytes32",
          "name": "role",
          "type": "bytes32"
        },
        {
          "indexed": true,
          "internalType": "address",
          "name": "account",
          "type": "address"
        },
        {
          "indexed": true,
          "internalType": "address",
          "name": "sender",
          "type": "address"
        }
      ],
      "name": "RoleGranted",
      "type": "event"
    },
    {
      "anonymous": false,
      "inputs": [
        {
          "indexed": true,
          "internalType": "bytes32",
          "name": "role",
          "type": "bytes32"
        },
        {
          "indexed": true,
          "internalType": "address",
          "name": "account",
          "type": "address"
        },
        {
          "indexed": true,
          "internalType": "address",
          "name": "sender",
          "type": "address"
        }
      ],
      "name": "RoleRevoked",
      "type": "event"
    },
    {
      "anonymous": false,
      "inputs": [
        {
          "indexed": false,
          "internalType": "address",
          "name": "account",
          "type": "address"
        }
      ],
      "name": "Unpaused",
      "type": "event"
    },
    {
      "stateMutability": "payable",
      "type": "fallback"
    },
    {
      "inputs": [],
      "name": "DEFAULT_ADMIN_ROLE",
      "outputs": [
        {
          "internalType": "bytes32",
          "name": "",
          "type": "bytes32"
        }
      ],
      "stateMutability": "view",
      "type": "function"
    },
    {
      "inputs": [
        {
          "internalType": "bytes32",
          "name": "role",
          "type": "bytes32"
        }
      ],
      "name": "getRoleAdmin",
      "outputs": [
        {
          "internalType": "bytes32",
          "name": "",
          "type": "bytes32"
        }
      ],
      "stateMutability": "view",
      "type": "function"
    },
    {
      "inputs": [
        {
          "internalType": "bytes32",
          "name": "role",
          "type": "bytes32"
        },
        {
          "internalType": "address",
          "name": "account",
          "type": "address"
        }
      ],
      "name": "grantRole",
      "outputs": [],
      "stateMutability": "nonpayable",
      "type": "function"
    },
    {
      "inputs": [
        {
          "internalType": "bytes32",
          "name": "role",
          "type": "bytes32"
        },
        {
          "internalType": "address",
          "name": "account",
          "type": "address"
        }
      ],
      "name": "hasRole",
      "outputs": [
        {
          "internalType": "bool",
          "name": "",
          "type": "bool"
        }
      ],
      "stateMutability": "view",
      "type": "function"
    },
    {
      "inputs": [],
      "name": "paused",
      "outputs": [
        {
          "internalType": "bool",
          "name": "",
          "type": "bool"
        }
      ],
      "stateMutability": "view",
      "type": "function"
    },
    {
      "inputs": [
        {
          "internalType": "bytes32",
          "name": "role",
          "type": "bytes32"
        },
        {
          "internalType": "address",
          "name": "account",
          "type": "address"
        }
      ],
      "name": "renounceRole",
      "outputs": [],
      "stateMutability": "nonpayable",
      "type": "function"
    },
    {
      "inputs": [
        {
          "internalType": "bytes32",
          "name": "role",
          "type": "bytes32"
        },
        {
          "internalType": "address",
          "name": "account",
          "type": "address"
        }
      ],
      "name": "revokeRole",
      "outputs": [],
      "stateMutability": "nonpayable",
      "type": "function"
    },
    {
      "inputs": [
        {
          "internalType": "bytes4",
          "name": "interfaceId",
          "type": "bytes4"
        }
      ],
      "name": "supportsInterface",
      "outputs": [
        {
          "internalType": "bool",
          "name": "",
          "type": "bool"
        }
      ],
      "stateMutability": "view",
      "type": "function"
    },
    {
      "stateMutability": "payable",
      "type": "receive"
    },
    {
      "inputs": [],
      "name": "pause",
      "outputs": [],
      "stateMutability": "nonpayable",
      "type": "function"
    },
    {
      "inputs": [],
      "name": "unpause",
      "outputs": [],
      "stateMutability": "nonpayable",
      "type": "function"
    },
    {
      "inputs": [],
      "name": "getBalance",
      "outputs": [
        {
          "internalType": "uint256",
          "name": "",
          "type": "uint256"
        }
      ],
      "stateMutability": "view",
      "type": "function"
    },
    {
      "inputs": [
        {
          "internalType": "address",
          "name": "recipient",
          "type": "address"
        },
        {
          "internalType": "uint256",
          "name": "startBlock",
          "type": "uint256"
        },
        {
          "internalType": "uint256",
          "name": "finishBlock",
          "type": "uint256"
        },
        {
          "internalType": "address",
          "name": "token",
          "type": "address"
        },
        {
          "internalType": "uint256",
          "name": "amountToken",
          "type": "uint256"
        }
      ],
      "name": "createPlan",
      "outputs": [],
      "stateMutability": "payable",
      "type": "function"
    },
    {
      "inputs": [
        {
          "internalType": "uint256",
          "name": "idx",
          "type": "uint256"
        }
      ],
      "name": "claimPayment",
      "outputs": [],
      "stateMutability": "payable",
      "type": "function"
    },
    {
      "inputs": [
        {
          "internalType": "address",
          "name": "recipient",
          "type": "address"
        }
      ],
      "name": "getNumberPlans",
      "outputs": [
        {
          "internalType": "uint256",
          "name": "",
          "type": "uint256"
        }
      ],
      "stateMutability": "view",
      "type": "function"
    },
    {
      "inputs": [
        {
          "internalType": "address",
          "name": "recipient",
          "type": "address"
        },
        {
          "internalType": "uint256",
          "name": "idx",
          "type": "uint256"
        }
      ],
      "name": "getPlan",
      "outputs": [
        {
          "components": [
            {
              "internalType": "uint256",
              "name": "_startBlock",
              "type": "uint256"
            },
            {
              "internalType": "uint256",
              "name": "_finishBlock",
              "type": "uint256"
            },
            {
              "internalType": "address",
              "name": "_token",
              "type": "address"
            },
            {
              "internalType": "uint256",
              "name": "_amountToken",
              "type": "uint256"
            },
            {
              "internalType": "uint256",
              "name": "_amountEth",
              "type": "uint256"
            }
          ],
          "internalType": "struct Vesting.Plan",
          "name": "",
          "type": "tuple"
        }
      ],
      "stateMutability": "view",
      "type": "function"
    },
    {
      "inputs": [
        {
          "internalType": "uint256",
          "name": "idx",
          "type": "uint256"
        }
      ],
      "name": "getPaymentAmount",
      "outputs": [
        {
          "internalType": "uint256",
          "name": "",
          "type": "uint256"
        },
        {
          "internalType": "uint256",
          "name": "",
          "type": "uint256"
        }
      ],
      "stateMutability": "view",
      "type": "function"
    }
  ],
  "bytecode": "0x608060405234801562000010575f80fd5b505f60015f6101000a81548160ff0219169083151502179055506200004d5f801b620000416200005360201b60201c565b6200005a60201b60201c565b620001be565b5f33905090565b6200006c82826200007060201b60201c565b5050565b6200008282826200015b60201b60201c565b620001575760015f808481526020019081526020015f205f015f8373ffffffffffffffffffffffffffffffffffffffff1673ffffffffffffffffffffffffffffffffffffffff1681526020019081526020015f205f6101000a81548160ff021916908315150217905550620000fc6200005360201b60201c565b73ffffffffffffffffffffffffffffffffffffffff168173ffffffffffffffffffffffffffffffffffffffff16837f2f8788117e7eff1d82e926ec794901d17c78024a50270940304540a733656f0d60405160405180910390a45b5050565b5f805f8481526020019081526020015f205f015f8373ffffffffffffffffffffffffffffffffffffffff1673ffffffffffffffffffffffffffffffffffffffff1681526020019081526020015f205f9054906101000a900460ff16905092915050565b61277180620001cc5f395ff3fe6080604052600436106100f6575f3560e01c80635c975abb1161008957806391d148541161005857806391d1485414610318578063a217fddf14610354578063c63fdcc71461037e578063d547741f1461039a576100fd565b80635c975abb1461025f57806368a720b81461028957806368c2fe99146102c65780638456cb5914610302576100fd565b806336568abe116100c557806336568abe146101c95780633f4ba83a146101f1578063467109aa1461020757806351459f9714610243576100fd565b806301ffc9a7146100ff57806312065fe01461013b578063248a9ca3146101655780632f2ff15d146101a1576100fd565b366100fd57005b005b34801561010a575f80fd5b50610125600480360381019061012091906117e5565b6103c2565b604051610132919061182a565b60405180910390f35b348015610146575f80fd5b5061014f61043b565b60405161015c919061185b565b60405180910390f35b348015610170575f80fd5b5061018b600480360381019061018691906118a7565b610442565b60405161019891906118e1565b60405180910390f35b3480156101ac575f80fd5b506101c760048036038101906101c29190611954565b61045e565b005b3480156101d4575f80fd5b506101ef60048036038101906101ea9190611954565b61047f565b005b3480156101fc575f80fd5b50610205610502565b005b348015610212575f80fd5b5061022d60048036038101906102289190611992565b610519565b60405161023a919061185b565b60405180910390f35b61025d600480360381019061025891906119e7565b6105d0565b005b34801561026a575f80fd5b5061027361094d565b604051610280919061182a565b60405180910390f35b348015610294575f80fd5b506102af60048036038101906102aa9190611a5e565b610962565b6040516102bd929190611a89565b60405180910390f35b3480156102d1575f80fd5b506102ec60048036038101906102e79190611ab0565b610a42565b6040516102f99190611b72565b60405180910390f35b34801561030d575f80fd5b50610316610c24565b005b348015610323575f80fd5b5061033e60048036038101906103399190611954565b610c3b565b60405161034b919061182a565b60405180910390f35b34801561035f575f80fd5b50610368610c9e565b60405161037591906118e1565b60405180910390f35b61039860048036038101906103939190611a5e565b610ca4565b005b3480156103a5575f80fd5b506103c060048036038101906103bb9190611954565b610fdc565b005b5f7f7965db0b000000000000000000000000000000000000000000000000000000007bffffffffffffffffffffffffffffffffffffffffffffffffffffffff1916827bffffffffffffffffffffffffffffffffffffffffffffffffffffffff19161480610434575061043382610ffd565b5b9050919050565b5f47905090565b5f805f8381526020019081526020015f20600101549050919050565b61046782610442565b61047081611066565b61047a838361107a565b505050565b610487611154565b73ffffffffffffffffffffffffffffffffffffffff168173ffffffffffffffffffffffffffffffffffffffff16146104f4576040517f08c379a00000000000000000000000000000000000000000000000000000000081526004016104eb90611c0b565b60405180910390fd5b6104fe828261115b565b5050565b5f801b61050e81611066565b610516611235565b50565b5f8073ffffffffffffffffffffffffffffffffffffffff168273ffffffffffffffffffffffffffffffffffffffff1603610588576040517f08c379a000000000000000000000000000000000000000000000000000000000815260040161057f90611c99565b60405180910390fd5b60025f8373ffffffffffffffffffffffffffffffffffffffff1673ffffffffffffffffffffffffffffffffffffffff1681526020019081526020015f20805490509050919050565b6105d8611296565b5f73ffffffffffffffffffffffffffffffffffffffff168573ffffffffffffffffffffffffffffffffffffffff1603610646576040517f08c379a000000000000000000000000000000000000000000000000000000000815260040161063d90611d27565b60405180910390fd5b828410610688576040517f08c379a000000000000000000000000000000000000000000000000000000000815260040161067f90611db5565b60405180910390fd5b5f8114801561069657505f34145b156106d6576040517f08c379a00000000000000000000000000000000000000000000000000000000081526004016106cd90611e1d565b60405180910390fd5b5f8111156107cb575f73ffffffffffffffffffffffffffffffffffffffff168273ffffffffffffffffffffffffffffffffffffffff160361074c576040517f08c379a000000000000000000000000000000000000000000000000000000000815260040161074390611e85565b60405180910390fd5b8173ffffffffffffffffffffffffffffffffffffffff166323b872dd3330846040518463ffffffff1660e01b815260040161078993929190611eb2565b6020604051808303815f875af11580156107a5573d5f803e3d5ffd5b505050506040513d601f19601f820116820180604052508101906107c99190611f11565b505b60025f8673ffffffffffffffffffffffffffffffffffffffff1673ffffffffffffffffffffffffffffffffffffffff1681526020019081526020015f206040518060a001604052808681526020018581526020018473ffffffffffffffffffffffffffffffffffffffff16815260200183815260200134815250908060018154018082558091505060019003905f5260205f2090600502015f909190919091505f820151815f0155602082015181600101556040820151816002015f6101000a81548173ffffffffffffffffffffffffffffffffffffffff021916908373ffffffffffffffffffffffffffffffffffffffff160217905550606082015181600301556080820151816004015550508473ffffffffffffffffffffffffffffffffffffffff163373ffffffffffffffffffffffffffffffffffffffff167f9f7444881580d4852bd023d57754a9f399b27b645c1e0239674d6f46728ec128868686863460405161093e959493929190611f3c565b60405180910390a35050505050565b5f60015f9054906101000a900460ff16905090565b5f8060025f3373ffffffffffffffffffffffffffffffffffffffff1673ffffffffffffffffffffffffffffffffffffffff1681526020019081526020015f208054905083106109b6575f8091509150610a3d565b5f60025f3373ffffffffffffffffffffffffffffffffffffffff1673ffffffffffffffffffffffffffffffffffffffff1681526020019081526020015f208481548110610a0657610a05611f8d565b5b905f5260205f20906005020190505f4390505f610a2383836112e0565b90505f610a30848461134e565b9050818195509550505050505b915091565b610a4a61174c565b5f73ffffffffffffffffffffffffffffffffffffffff168373ffffffffffffffffffffffffffffffffffffffff1603610ab8576040517f08c379a0000000000000000000000000000000000000000000000000000000008152600401610aaf9061202a565b60405180910390fd5b60025f8473ffffffffffffffffffffffffffffffffffffffff1673ffffffffffffffffffffffffffffffffffffffff1681526020019081526020015f20805490508210610b3a576040517f08c379a0000000000000000000000000000000000000000000000000000000008152600401610b3190612092565b60405180910390fd5b60025f8473ffffffffffffffffffffffffffffffffffffffff1673ffffffffffffffffffffffffffffffffffffffff1681526020019081526020015f208281548110610b8957610b88611f8d565b5b905f5260205f2090600502016040518060a00160405290815f820154815260200160018201548152602001600282015f9054906101000a900473ffffffffffffffffffffffffffffffffffffffff1673ffffffffffffffffffffffffffffffffffffffff1673ffffffffffffffffffffffffffffffffffffffff16815260200160038201548152602001600482015481525050905092915050565b5f801b610c3081611066565b610c386113bc565b50565b5f805f8481526020019081526020015f205f015f8373ffffffffffffffffffffffffffffffffffffffff1673ffffffffffffffffffffffffffffffffffffffff1681526020019081526020015f205f9054906101000a900460ff16905092915050565b5f801b81565b5f33905060025f8273ffffffffffffffffffffffffffffffffffffffff1673ffffffffffffffffffffffffffffffffffffffff1681526020019081526020015f20805490508210610d2a576040517f08c379a0000000000000000000000000000000000000000000000000000000008152600401610d2190612120565b60405180910390fd5b5f60025f8373ffffffffffffffffffffffffffffffffffffffff1673ffffffffffffffffffffffffffffffffffffffff1681526020019081526020015f208381548110610d7a57610d79611f8d565b5b905f5260205f20906005020190505f8160030154148015610d9e57505f8160040154145b15610dde576040517f08c379a0000000000000000000000000000000000000000000000000000000008152600401610dd5906121ae565b60405180910390fd5b5f4390505f610ded83836112e0565b90505f610dfa848461134e565b90505f82148015610e0a57505f81145b15610e4a576040517f08c379a0000000000000000000000000000000000000000000000000000000008152600401610e419061223c565b60405180910390fd5b5f846002015f9054906101000a900473ffffffffffffffffffffffffffffffffffffffff16905082856003015f828254610e849190612287565b9250508190555081856004015f828254610e9e9190612287565b9250508190555083855f01819055505f831115610f32578073ffffffffffffffffffffffffffffffffffffffff1663a9059cbb87856040518363ffffffff1660e01b8152600401610ef09291906122ba565b6020604051808303815f875af1158015610f0c573d5f803e3d5ffd5b505050506040513d601f19601f82011682018060405250810190610f309190611f11565b505b5f821115610f7f578573ffffffffffffffffffffffffffffffffffffffff166108fc8390811502906040515f60405180830381858888f19350505050158015610f7d573d5f803e3d5ffd5b505b8573ffffffffffffffffffffffffffffffffffffffff167f4f5dd82af970c6048660ee1f581f6d53293bcd2961081a918d17de53ae8f915d85838686604051610fcb94939291906122e1565b60405180910390a250505050505050565b610fe582610442565b610fee81611066565b610ff8838361115b565b505050565b5f7f01ffc9a7000000000000000000000000000000000000000000000000000000007bffffffffffffffffffffffffffffffffffffffffffffffffffffffff1916827bffffffffffffffffffffffffffffffffffffffffffffffffffffffff1916149050919050565b61107781611072611154565b61141d565b50565b6110848282610c3b565b6111505760015f808481526020019081526020015f205f015f8373ffffffffffffffffffffffffffffffffffffffff1673ffffffffffffffffffffffffffffffffffffffff1681526020019081526020015f205f6101000a81548160ff0219169083151502179055506110f5611154565b73ffffffffffffffffffffffffffffffffffffffff168173ffffffffffffffffffffffffffffffffffffffff16837f2f8788117e7eff1d82e926ec794901d17c78024a50270940304540a733656f0d60405160405180910390a45b5050565b5f33905090565b6111658282610c3b565b15611231575f805f8481526020019081526020015f205f015f8373ffffffffffffffffffffffffffffffffffffffff1673ffffffffffffffffffffffffffffffffffffffff1681526020019081526020015f205f6101000a81548160ff0219169083151502179055506111d6611154565b73ffffffffffffffffffffffffffffffffffffffff168173ffffffffffffffffffffffffffffffffffffffff16837ff6391f5c32d9c69d2a47ea670b442974b53935d1edc7fd64eb21e047a839171b60405160405180910390a45b5050565b61123d6114a1565b5f60015f6101000a81548160ff0219169083151502179055507f5db9ee0a495bf2e6ff9c91a7834c1ba4fdd244a5e8aa4e537bd38aeae4b073aa61127f611154565b60405161128c9190612324565b60405180910390a1565b61129e61094d565b156112de576040517f08c379a00000000000000000000000000000000000000000000000000000000081526004016112d590612387565b60405180910390fd5b565b5f825f015482116112f3575f9050611348565b8260010154821061130a5782600301549050611348565b825f0154836001015461131d9190612287565b835f01548361132c9190612287565b846003015461133b91906123a5565b6113459190612413565b90505b92915050565b5f825f01548211611361575f90506113b6565b8260010154821061137857826004015490506113b6565b825f0154836001015461138b9190612287565b835f01548361139a9190612287565b84600401546113a991906123a5565b6113b39190612413565b90505b92915050565b6113c4611296565b6001805f6101000a81548160ff0219169083151502179055507f62e78cea01bee320cd4e420270b5ea74000d11b0c9f74754ebdbfc544b05a258611406611154565b6040516114139190612324565b60405180910390a1565b6114278282610c3b565b61149d57611434816114ea565b611441835f1c6020611517565b604051602001611452929190612543565b6040516020818303038152906040526040517f08c379a000000000000000000000000000000000000000000000000000000000815260040161149491906125c4565b60405180910390fd5b5050565b6114a961094d565b6114e8576040517f08c379a00000000000000000000000000000000000000000000000000000000081526004016114df9061262e565b60405180910390fd5b565b60606115108273ffffffffffffffffffffffffffffffffffffffff16601460ff16611517565b9050919050565b60605f600283600261152991906123a5565b611533919061264c565b67ffffffffffffffff81111561154c5761154b61267f565b5b6040519080825280601f01601f19166020018201604052801561157e5781602001600182028036833780820191505090505b5090507f3000000000000000000000000000000000000000000000000000000000000000815f815181106115b5576115b4611f8d565b5b60200101907effffffffffffffffffffffffffffffffffffffffffffffffffffffffffffff191690815f1a9053507f78000000000000000000000000000000000000000000000000000000000000008160018151811061161857611617611f8d565b5b60200101907effffffffffffffffffffffffffffffffffffffffffffffffffffffffffffff191690815f1a9053505f600184600261165691906123a5565b611660919061264c565b90505b60018111156116ff577f3031323334353637383961626364656600000000000000000000000000000000600f8616601081106116a2576116a1611f8d565b5b1a60f81b8282815181106116b9576116b8611f8d565b5b60200101907effffffffffffffffffffffffffffffffffffffffffffffffffffffffffffff191690815f1a905350600485901c9450806116f8906126ac565b9050611663565b505f8414611742576040517f08c379a00000000000000000000000000000000000000000000000000000000081526004016117399061271d565b60405180910390fd5b8091505092915050565b6040518060a001604052805f81526020015f81526020015f73ffffffffffffffffffffffffffffffffffffffff1681526020015f81526020015f81525090565b5f80fd5b5f7fffffffff0000000000000000000000000000000000000000000000000000000082169050919050565b6117c481611790565b81146117ce575f80fd5b50565b5f813590506117df816117bb565b92915050565b5f602082840312156117fa576117f961178c565b5b5f611807848285016117d1565b91505092915050565b5f8115159050919050565b61182481611810565b82525050565b5f60208201905061183d5f83018461181b565b92915050565b5f819050919050565b61185581611843565b82525050565b5f60208201905061186e5f83018461184c565b92915050565b5f819050919050565b61188681611874565b8114611890575f80fd5b50565b5f813590506118a18161187d565b92915050565b5f602082840312156118bc576118bb61178c565b5b5f6118c984828501611893565b91505092915050565b6118db81611874565b82525050565b5f6020820190506118f45f8301846118d2565b92915050565b5f73ffffffffffffffffffffffffffffffffffffffff82169050919050565b5f611923826118fa565b9050919050565b61193381611919565b811461193d575f80fd5b50565b5f8135905061194e8161192a565b92915050565b5f806040838503121561196a5761196961178c565b5b5f61197785828601611893565b925050602061198885828601611940565b9150509250929050565b5f602082840312156119a7576119a661178c565b5b5f6119b484828501611940565b91505092915050565b6119c681611843565b81146119d0575f80fd5b50565b5f813590506119e1816119bd565b92915050565b5f805f805f60a08688031215611a00576119ff61178c565b5b5f611a0d88828901611940565b9550506020611a1e888289016119d3565b9450506040611a2f888289016119d3565b9350506060611a4088828901611940565b9250506080611a51888289016119d3565b9150509295509295909350565b5f60208284031215611a7357611a7261178c565b5b5f611a80848285016119d3565b91505092915050565b5f604082019050611a9c5f83018561184c565b611aa9602083018461184c565b9392505050565b5f8060408385031215611ac657611ac561178c565b5b5f611ad385828601611940565b9250506020611ae4858286016119d3565b9150509250929050565b611af781611843565b82525050565b611b0681611919565b82525050565b60a082015f820151611b205f850182611aee565b506020820151611b336020850182611aee565b506040820151611b466040850182611afd565b506060820151611b596060850182611aee565b506080820151611b6c6080850182611aee565b50505050565b5f60a082019050611b855f830184611b0c565b92915050565b5f82825260208201905092915050565b7f416363657373436f6e74726f6c3a2063616e206f6e6c792072656e6f756e63655f8201527f20726f6c657320666f722073656c660000000000000000000000000000000000602082015250565b5f611bf5602f83611b8b565b9150611c0082611b9b565b604082019050919050565b5f6020820190508181035f830152611c2281611be9565b9050919050565b7f6765744e756d626572506c616e733a20726563697069656e742077697468206e5f8201527f756c6c2061646472657373000000000000000000000000000000000000000000602082015250565b5f611c83602b83611b8b565b9150611c8e82611c29565b604082019050919050565b5f6020820190508181035f830152611cb081611c77565b9050919050565b7f637265617465506c616e3a20726563697069656e742077697468206e756c6c205f8201527f6164647265737300000000000000000000000000000000000000000000000000602082015250565b5f611d11602783611b8b565b9150611d1c82611cb7565b604082019050919050565b5f6020820190508181035f830152611d3e81611d05565b9050919050565b7f637265617465506c616e3a2073746172742073686f756c6420626520736d616c5f8201527f6c6572207468616e2066696e6973680000000000000000000000000000000000602082015250565b5f611d9f602f83611b8b565b9150611daa82611d45565b604082019050919050565b5f6020820190508181035f830152611dcc81611d93565b9050919050565b7f637265617465506c616e3a206e6f2073706563696669656420616d6f756e74735f82015250565b5f611e07602083611b8b565b9150611e1282611dd3565b602082019050919050565b5f6020820190508181035f830152611e3481611dfb565b9050919050565b7f637265617465506c616e3a206e6f20746f6b656e2061646472657373000000005f82015250565b5f611e6f601c83611b8b565b9150611e7a82611e3b565b602082019050919050565b5f6020820190508181035f830152611e9c81611e63565b9050919050565b611eac81611919565b82525050565b5f606082019050611ec55f830186611ea3565b611ed26020830185611ea3565b611edf604083018461184c565b949350505050565b611ef081611810565b8114611efa575f80fd5b50565b5f81519050611f0b81611ee7565b92915050565b5f60208284031215611f2657611f2561178c565b5b5f611f3384828501611efd565b91505092915050565b5f60a082019050611f4f5f83018861184c565b611f5c602083018761184c565b611f696040830186611ea3565b611f76606083018561184c565b611f83608083018461184c565b9695505050505050565b7f4e487b71000000000000000000000000000000000000000000000000000000005f52603260045260245ffd5b7f676574506c616e3a20726563697069656e742077697468206e756c6c206164645f8201527f7265737300000000000000000000000000000000000000000000000000000000602082015250565b5f612014602483611b8b565b915061201f82611fba565b604082019050919050565b5f6020820190508181035f83015261204181612008565b9050919050565b7f676574506c616e3a207468657265206973206e6f207375636820696e646578005f82015250565b5f61207c601f83611b8b565b915061208782612048565b602082019050919050565b5f6020820190508181035f8301526120a981612070565b9050919050565b7f636c61696d5061796d656e743a207468657265206973206e6f207375636820695f8201527f6e64657800000000000000000000000000000000000000000000000000000000602082015250565b5f61210a602483611b8b565b9150612115826120b0565b604082019050919050565b5f6020820190508181035f830152612137816120fe565b9050919050565b7f636c61696d5061796d656e743a207468657265206973206e6f207061796f75745f8201527f20616d6f756e7400000000000000000000000000000000000000000000000000602082015250565b5f612198602783611b8b565b91506121a38261213e565b604082019050919050565b5f6020820190508181035f8301526121c58161218c565b9050919050565b7f636c61696d5061796d656e743a2063757272656e746c79206e6f207061796f755f8201527f7473000000000000000000000000000000000000000000000000000000000000602082015250565b5f612226602283611b8b565b9150612231826121cc565b604082019050919050565b5f6020820190508181035f8301526122538161221a565b9050919050565b7f4e487b71000000000000000000000000000000000000000000000000000000005f52601160045260245ffd5b5f61229182611843565b915061229c83611843565b92508282039050818111156122b4576122b361225a565b5b92915050565b5f6040820190506122cd5f830185611ea3565b6122da602083018461184c565b9392505050565b5f6080820190506122f45f83018761184c565b6123016020830186611ea3565b61230e604083018561184c565b61231b606083018461184c565b95945050505050565b5f6020820190506123375f830184611ea3565b92915050565b7f5061757361626c653a20706175736564000000000000000000000000000000005f82015250565b5f612371601083611b8b565b915061237c8261233d565b602082019050919050565b5f6020820190508181035f83015261239e81612365565b9050919050565b5f6123af82611843565b91506123ba83611843565b92508282026123c881611843565b915082820484148315176123df576123de61225a565b5b5092915050565b7f4e487b71000000000000000000000000000000000000000000000000000000005f52601260045260245ffd5b5f61241d82611843565b915061242883611843565b925082612438576124376123e6565b5b828204905092915050565b5f81905092915050565b7f416363657373436f6e74726f6c3a206163636f756e74200000000000000000005f82015250565b5f612481601783612443565b915061248c8261244d565b601782019050919050565b5f81519050919050565b5f5b838110156124be5780820151818401526020810190506124a3565b5f8484015250505050565b5f6124d382612497565b6124dd8185612443565b93506124ed8185602086016124a1565b80840191505092915050565b7f206973206d697373696e6720726f6c65200000000000000000000000000000005f82015250565b5f61252d601183612443565b9150612538826124f9565b601182019050919050565b5f61254d82612475565b915061255982856124c9565b915061256482612521565b915061257082846124c9565b91508190509392505050565b5f601f19601f8301169050919050565b5f61259682612497565b6125a08185611b8b565b93506125b08185602086016124a1565b6125b98161257c565b840191505092915050565b5f6020820190508181035f8301526125dc818461258c565b905092915050565b7f5061757361626c653a206e6f74207061757365640000000000000000000000005f82015250565b5f612618601483611b8b565b9150612623826125e4565b602082019050919050565b5f6020820190508181035f8301526126458161260c565b9050919050565b5f61265682611843565b915061266183611843565b92508282019050808211156126795761267861225a565b5b92915050565b7f4e487b71000000000000000000000000000000000000000000000000000000005f52604160045260245ffd5b5f6126b682611843565b91505f82036126c8576126c761225a565b5b600182039050919050565b7f537472696e67733a20686578206c656e67746820696e73756666696369656e745f82015250565b5f612707602083611b8b565b9150612712826126d3565b602082019050919050565b5f6020820190508181035f830152612734816126fb565b905091905056fea2646970667358221220b4f5be1b21f1431a3b80db60c154deec07d6beb27bff195eea4216e27ded6b5764736f6c63430008140033",
  "immutableReferences": {},
  "source": "// SPDX-License-Identifier: MIT\n\n// Author: Pavlo Zavadskiy\n// Email: pavelzavadsky@gmail.com\n// GitHub: https://github.com/PavelZavadskiy\n\npragma solidity 0.8.20;\n\nimport '@openzeppelin/contracts/access/AccessControl.sol';\nimport '@openzeppelin/contracts/security/Pausable.sol';\nimport '@openzeppelin/contracts/token/ERC20/IERC20.sol';\n\ncontract Vesting is AccessControl, Pausable {\n  struct Plan {\n    uint256 _startBlock;\n    uint256 _finishBlock;\n    address _token;\n    uint256 _amountToken;\n    uint256 _amountEth;\n  }\n\n  mapping(address => Plan[]) private usersPlans;\n\n  event CreatePlan(\n    address indexed from,\n    address indexed to,\n    uint256 start,\n    uint256 finish,\n    address token,\n    uint256 amountToken,\n    uint256 amountEth\n  );\n\n  event ClaimPayment(address indexed to, uint256 currentBlock, address token, uint256 amountToken, uint256 amountEth);\n\n  constructor() {\n    _setupRole(DEFAULT_ADMIN_ROLE, _msgSender());\n  }\n\n  function pause() public onlyRole(DEFAULT_ADMIN_ROLE) {\n    _pause();\n  }\n\n  function unpause() public onlyRole(DEFAULT_ADMIN_ROLE) {\n    _unpause();\n  }\n\n  receive() external payable {}\n\n  fallback() external payable {}\n\n  function getBalance() public view returns (uint) {\n    return address(this).balance;\n  }\n\n  function createPlan(\n    address recipient,\n    uint256 startBlock,\n    uint256 finishBlock,\n    address token,\n    uint256 amountToken\n  ) public payable whenNotPaused {\n    require(recipient != address(0), 'createPlan: recipient with null address');\n    require(startBlock < finishBlock, 'createPlan: start should be smaller than finish');\n    require(!(amountToken == 0 && msg.value == 0), 'createPlan: no specified amounts');\n    if (amountToken > 0) {\n      require(token != address(0), 'createPlan: no token address');\n      IERC20(token).transferFrom(msg.sender, address(this), amountToken);\n    }\n    usersPlans[recipient].push(Plan(startBlock, finishBlock, token, amountToken, msg.value));\n    emit CreatePlan(msg.sender, recipient, startBlock, finishBlock, token, amountToken, msg.value);\n  }\n\n  function _currentPaymentToken(Plan storage plan, uint256 currentBlock) private view returns (uint256) {\n    if (currentBlock <= plan._startBlock) return 0;\n    if (currentBlock >= plan._finishBlock) return plan._amountToken;\n    else return (plan._amountToken * (currentBlock - plan._startBlock)) / (plan._finishBlock - plan._startBlock);\n  }\n\n  function _currentPaymentEth(Plan storage userPlan, uint256 currentBlock) private view returns (uint256) {\n    if (currentBlock <= userPlan._startBlock) return 0;\n    if (currentBlock >= userPlan._finishBlock) return userPlan._amountEth;\n    else\n      return\n        (userPlan._amountEth * (currentBlock - userPlan._startBlock)) / (userPlan._finishBlock - userPlan._startBlock);\n  }\n\n  function claimPayment(uint256 idx) public payable {\n    address msgSender = msg.sender;\n    require(idx < usersPlans[msgSender].length, 'claimPayment: there is no such index');\n\n    Plan storage userPlan = usersPlans[msgSender][idx];\n\n    require(!(userPlan._amountToken == 0 && userPlan._amountEth == 0), 'claimPayment: there is no payout amount');\n\n    uint256 currentBlock = block.number;\n    uint256 amountToken = _currentPaymentToken(userPlan, currentBlock);\n    uint256 amountEth = _currentPaymentEth(userPlan, currentBlock);\n\n    require(!(amountToken == 0 && amountEth == 0), 'claimPayment: currently no payouts');\n\n    address token = userPlan._token;\n    userPlan._amountToken -= amountToken;\n    userPlan._amountEth -= amountEth;\n    userPlan._startBlock = currentBlock;\n\n    if (amountToken > 0) {\n      IERC20(token).transfer(msgSender, amountToken);\n    }\n    if (amountEth > 0) {\n      payable(msgSender).transfer(amountEth);\n    }\n\n    emit ClaimPayment(msgSender, currentBlock, token, amountToken, amountEth);\n  }\n\n  function getNumberPlans(address recipient) public view returns (uint256) {\n    require(address(recipient) != address(0), 'getNumberPlans: recipient with null address');\n    return usersPlans[recipient].length;\n  }\n\n  function getPlan(address recipient, uint256 idx) public view returns (Plan memory) {\n    require(address(recipient) != address(0), 'getPlan: recipient with null address');\n    require(idx < usersPlans[recipient].length, 'getPlan: there is no such index');\n\n    return usersPlans[recipient][idx];\n  }\n\n  function getPaymentAmount(uint256 idx) public view returns (uint, uint) {\n    if (idx >= usersPlans[msg.sender].length) return (0, 0);\n    Plan storage userPlan = usersPlans[msg.sender][idx];\n    uint256 currentBlock = block.number;\n    uint256 amountToken = _currentPaymentToken(userPlan, currentBlock);\n    uint256 amountEth = _currentPaymentEth(userPlan, currentBlock);\n    return (amountToken, amountEth);\n  }\n}\n",
  "sourcePath": "D:\\documents\\programming\\Solidity\\vesting-eth-erc20\\contracts\\Vesting.sol",
  "compiler": {
    "name": "solc",
    "version": "0.8.20+commit.a1b79de6.Emscripten.clang"
  },
  "schemaVersion": "3.4.4",
  "updatedAt": "2023-06-02T09:53:59.787Z",
  "devdoc": {
    "events": {
      "Paused(address)": {
        "details": "Emitted when the pause is triggered by `account`."
      },
      "RoleAdminChanged(bytes32,bytes32,bytes32)": {
        "details": "Emitted when `newAdminRole` is set as ``role``'s admin role, replacing `previousAdminRole` `DEFAULT_ADMIN_ROLE` is the starting admin for all roles, despite {RoleAdminChanged} not being emitted signaling this. _Available since v3.1._"
      },
      "RoleGranted(bytes32,address,address)": {
        "details": "Emitted when `account` is granted `role`. `sender` is the account that originated the contract call, an admin role bearer except when using {AccessControl-_setupRole}."
      },
      "RoleRevoked(bytes32,address,address)": {
        "details": "Emitted when `account` is revoked `role`. `sender` is the account that originated the contract call:   - if using `revokeRole`, it is the admin role bearer   - if using `renounceRole`, it is the role bearer (i.e. `account`)"
      },
      "Unpaused(address)": {
        "details": "Emitted when the pause is lifted by `account`."
      }
    },
    "kind": "dev",
    "methods": {
      "getRoleAdmin(bytes32)": {
        "details": "Returns the admin role that controls `role`. See {grantRole} and {revokeRole}. To change a role's admin, use {_setRoleAdmin}."
      },
      "grantRole(bytes32,address)": {
        "details": "Grants `role` to `account`. If `account` had not been already granted `role`, emits a {RoleGranted} event. Requirements: - the caller must have ``role``'s admin role. May emit a {RoleGranted} event."
      },
      "hasRole(bytes32,address)": {
        "details": "Returns `true` if `account` has been granted `role`."
      },
      "paused()": {
        "details": "Returns true if the contract is paused, and false otherwise."
      },
      "renounceRole(bytes32,address)": {
        "details": "Revokes `role` from the calling account. Roles are often managed via {grantRole} and {revokeRole}: this function's purpose is to provide a mechanism for accounts to lose their privileges if they are compromised (such as when a trusted device is misplaced). If the calling account had been revoked `role`, emits a {RoleRevoked} event. Requirements: - the caller must be `account`. May emit a {RoleRevoked} event."
      },
      "revokeRole(bytes32,address)": {
        "details": "Revokes `role` from `account`. If `account` had been granted `role`, emits a {RoleRevoked} event. Requirements: - the caller must have ``role``'s admin role. May emit a {RoleRevoked} event."
      },
      "supportsInterface(bytes4)": {
        "details": "See {IERC165-supportsInterface}."
      }
    },
    "version": 1
  },
  "userdoc": {
    "kind": "user",
    "methods": {},
    "version": 1
  }
}